S00D0000313032336E2E73726563E3
S113000045C0000061C00000AAC000005CC0000040
S11300105AC0000058C0000056C0000054C0000080
S113002052C0000050C000004EC000004CC0000090
S11300304AC0000048C0000046C0000044C00000A0
S113004042C0000040C000003EC000003CC00000B0
S11300503AC0000038C0000036C0000034C00000C0
S113006032C0000030C000002EC000002CC00000D0
S11300702AC0000028C0000026C0000024C00000E0
S113008022C0000020C000001EC0000011241FBEBA
S1130090CFEFD0E1DEBFCDBF11E0A0E0B1E0E2E5FB
S11300A0F2E000E00BBF02C007900D92A031B1074F
S11300B0D9F721E0A0E1B1E001C01D92A431B2075B
S11300C0E1F798D0C4C09CCF1F920F920FB60F9245
S11300D011240BB60F922F938F939F93EF93FF935B
S11300E0809112019091130101968031910529F0BC
S11300F0909313018093120104C010921301109283
S113010012018EE08BBBE0911201F0911301E050DB
S1130110FF4F808188BB2FEF81EE94E02150804017
S11301209040E1F700C00000809B0BC02FEF81EEF0
S113013094E0215080409040E1F700C00000809995
S1130140F5CF81E088BFFF91EF919F918F912F911F
S11301500F900BBE0F900FBE0F901F9018951F921B
S11301600F920FB60F9211240BB60F922F938F9309
S11301709F93EF93FF938091100190911101019748
S113018028F0909311018093100106C08FE090E055
S113019090931101809310018DE08BBBE0911001CD
S11301A0F0911101E050FF4F808188BB8FEF91EEF9
S11301B024E0815090402040E1F700C00000809B83
S11301C00BC08FEF91EE24E0815090402040E1F786
S11301D000C000008099F5CF81E088BFFF91EF91C6
S11301E09F918F912F910F900BBE0F900FBE0F9088
S11301F01F9018958FEF8ABB87BB1BBA80910001B3
S113020088BB83E089BF80936A0078942EE09DE0E8
S11302102BBBE0911201F0911301E050FF4F80815C
S113022088BBEFE1F3E03197F1F700C000009BBB1E
S1130230E0911001F0911101E050FF4F808188BBE3
S1130240EFE1F3E03197F1F700C00000E1CFF8945B
S1050250FFCFDA
S11302523F065B4F666D7D077F6F777C395E7971F0
S9030000FC
