S00E0000313033302D332E73726563F2
S113000045C0000060C000005EC000005CC000008D
S11300105AC0000058C0000056C0000054C0000080
S113002052C0000050C000004EC000004CC0000090
S11300304AC0000048C0000046C0000044C00000A0
S113004043C0000040C000003EC000003CC00000AF
S11300503AC0000038C0000036C0000034C00000C0
S113006032C0000030C000002EC000002CC00000D0
S11300702AC0000028C0000026C0000024C00000E0
S113008022C0000020C000001EC0000011241FBEBA
S1130090CFEFD0E1DEBFCDBF11E0A0E0B1E0E6E6F6
S11300A0F1E000E00BBF02C007900D92A830B10749
S11300B0D9F721E0A8E0B1E001C01D92AB30B2074E
S11300C0E1F742D04EC09CCF1F920F920FB60F9211
S11300D011240BB60F922F933F938F939F93EF931B
S11300E0FF9384E682BF80910A018F5F843119F007
S11300F080930A011CC010920A018091080190911A
S113010009019C012F5F3F4F30930901209308019F
S1130110FC01E050FF4F80818BBB809108019091DE
S11301200901089721F41092090110920801FF9126
S1130130EF919F918F913F912F910F900BBE0F9054
S11301400FBE0F901F9018958FEF8ABB8BBB13BE09
S113015084E682BF81E087BF83B7876083BF7894DA
S1090160FFCFF894FFCF6D
S10B0166FEFDFBF7EFDFBF7F94
S9030000FC
