:1000000045C00000C9C000000CC1000054C0000081
:1000100052C0000050C000004EC000004CC00000A4
:100020004AC0000048C0000046C0000044C00000B4
:1000300042C0000040C000003EC000003CC00000C4
:100040003AC0000038C0000036C0000034C00000D4
:1000500032C0000030C000002EC000002CC00000E4
:100060002AC0000028C0000026C0000024C00000F4
:1000700022C0000020C000001EC000001CC0000004
:100080001AC0000018C0000016C0000011241FBED6
:10009000CFEFD0E1DEBFCDBF11E0A0E0B1E0E8ECF2
:1000A000F2E000E00BBF02C007900D92A232B10750
:1000B000D9F7F5D007C1A4CF2FEF30E792E0215058
:1000C00030409040E1F700C000008BBB85B38670E4
:1000D00085BB85B3857085BBAA9A85B3837085BBC4
:1000E00025E02A95F1F7000008958FEF8ABB84B3CD
:1000F0008F6084BB8FE59AEE0197F1F700C0000096
:1001000080E38BBB85B315BA8FE090E40197F1F7DC
:1001100000C0000085B315BA8FE891E00197F1F7B0
:1001200000C0000085B315BA88E3C6DF88E0C4DFED
:1001300081E0C2DF86E0C0DF8FE0BECF08952FEF01
:1001400030E792E0215030409040E1F700C00000DD
:10015000A89A95B3957095BBAA9AE7ECF0E0319711
:10016000F1F700C000008BBB87EC90E00197F1F73E
:1001700000C0000085B3837085BB0895CF93DF93E3
:10018000EC018881882329F02196D9DF899181119A
:10019000FCCFDF91CF9108951F920F920FB60F926F
:1001A00011240BB60F922F933F934F935F936F934E
:1001B0007F938F939F93AF93BF93EF93FF9395DFBD
:1001C00089E091E0DBDF8FEF82B98AE090E02FEFEA
:1001D00023B93FEF49E658E1315040405040E1F744
:1001E00000C0000013B83FEF49E658E131504040ED
:1001F0005040E1F700C00000019751F7FF91EF91E7
:10020000BF91AF919F918F917F916F915F914F912E
:100210003F912F910F900BBE0F900FBE0F901F902C
:1002200018951F920F920FB60F9211240BB60F92D2
:100230002F933F934F935F936F937F938F939F93EE
:10024000AF93BF93EF93FF9350DF83E191E096DF8D
:100250008FEF87BBE0E0F1E029E031E0819188BBDE
:100260004FEF83EC99E0415080409040E1F700C0AF
:100270000000E217F30791F7FF91EF91BF91AF9163
:100280009F918F917F916F915F914F913F912F91AE
:100290000F900BBE0F900FBE0F901F9018958FEF11
:1002A00082B98ABB84BB87BB11BA82BB8091000133
:1002B00088BBEAE6F0E080818360808383E089BFC9
:0802C0007894FFCFF894FFCF02
:1002C8005B3F06663F663F5B5B454D455247454E83
:1002D80043590032303134303430323220505348B0
:0202E800000014
:00000001FF
