:1000000045C0000058C0000056C0000054C00000A9
:1000100052C0000050C000004EC000004CC00000A4
:100020004AC0000048C0000046C0000044C00000B4
:1000300042C0000040C000003EC000003CC00000C4
:100040003AC0000038C0000036C0000034C00000D4
:1000500032C0000030C000002EC000002CC00000E4
:100060002AC0000028C0000026C0000024C00000F4
:1000700022C0000020C000001EC000001CC0000004
:100080001AC0000018C0000016C0000011241FBED6
:10009000CFEFD0E1DEBFCDBF11E0A0E0B1E0EAEAF2
:1000A000F1E000E00BBF02C007900D92AC30B10749
:1000B000D9F772D078C0A4CF2FEF30E792E021506B
:1000C00030409040E1F700C000008BBB85B38670E4
:1000D00085BB85B3857085BBAA9A85B3837085BBC4
:1000E00025E02A95F1F7000008958FEF8ABB84B3CD
:1000F0008F6084BB8FE59AEE0197F1F700C0000096
:1001000080E38BBB85B315BA8FE090E40197F1F7DC
:1001100000C0000085B315BA8FE891E00197F1F7B0
:1001200000C0000085B315BA88E3C6DF88E0C4DFED
:1001300081E0C2DF86E0C0DF8FE0BECF08952FEF01
:1001400030E792E0215030409040E1F700C00000DD
:10015000A89A95B3957095BBAA9AE7ECF0E0319711
:10016000F1F700C000008BBB87EC90E00197F1F73E
:1001700000C0000085B3837085BB0895CF93DF93E3
:10018000EC018881882329F02196D9DF899181119A
:10019000FCCFDF91CF910895A8DF80E091E0EEDF02
:0A01A00080E090E00895F894FFCF8E
:0C01AA0068656C6C6F7720617672000055
:00000001FF
