:1000000045C0000061C00000AAC000005CC0000044
:100010005AC0000058C0000056C0000054C0000084
:1000200052C0000050C000004EC000004CC0000094
:100030004AC0000048C0000046C0000044C00000A4
:1000400042C0000040C000003EC000003CC00000B4
:100050003AC0000038C0000036C0000034C00000C4
:1000600032C0000030C000002EC000002CC00000D4
:100070002AC0000028C0000026C0000024C00000E4
:1000800022C0000020C000001EC0000011241FBEBE
:10009000CFEFD0E1DEBFCDBF11E0A0E0B1E0E2E5FF
:1000A000F2E000E00BBF02C007900D92A031B10753
:1000B000D9F721E0A0E1B1E001C01D92A431B2075F
:1000C000E1F798D0C4C09CCF1F920F920FB60F9249
:1000D00011240BB60F922F938F939F93EF93FF935F
:1000E0008091120190911301019728F090931301D0
:1000F0008093120106C08FE090E0909313018093EB
:1001000012018EEF85BBE0911201F0911301E050D6
:10011000FF4F80818BBB8FEF91EE24E081509040A8
:100120002040E1F700C0000080990BC08FEF91EEF6
:1001300024E0815090402040E1F700C00000809B07
:10014000F5CF81E088BFFF91EF919F918F912F9123
:100150000F900BBE0F900FBE0F901F9018951F921F
:100160000F920FB60F9211240BB60F922F938F930D
:100170009F93EF93FF93809110019091110101964D
:100180008031910529F0909311018093100104C0F2
:1001900010921101109210018DEF85BBE0911001BA
:1001A000F0911101E050FF4F80818BBB2FEF81EE6A
:1001B00094E0215080409040E1F700C00000809919
:1001C0000BC02FEF81EE94E0215080409040E1F78A
:1001D00000C00000809BF5CF81E088BFFF91EF91C8
:1001E0009F918F912F910F900BBE0F900FBE0F908C
:1001F0001F9018958FEF8ABB84BB15BA80910001C0
:100200008BBB83E080936A0089BF78942EEF9DEFCB
:1002100025BBE0911201F0911301E050FF4F808166
:100220008BBBEFE8F1E03197F1F700C0000095BB20
:10023000E0911001F0911101E050FF4F80818BBBE4
:10024000EFE8F1E03197F1F700C00000E1CFF8945A
:02025000FFCFDE
:100252003F065B4F666D7D277F6F777C395E7971D4
:00000001FF
