S00C0000313130362E7372656350
S113000045C0000059C0000089C0000054C0000071
S113001052C0000050C000004EC000004CC00000A0
S11300204AC0000048C0000046C0000044C00000B0
S113003042C0000040C000003EC000003CC00000C0
S11300403AC0000038C0000036C0000034C00000D0
S113005032C0000030C000002EC000002CC00000E0
S11300602AC0000028C0000026C0000024C00000F0
S113007022C0000020C000001EC000001CC0000000
S11300801AC0000018C0000016C0000011241FBED2
S1130090CFEFD0E1DEBFCDBF11E0A0E0B1E0E2EAF6
S11300A0F1E000E00BBF02C007900D92A230B1074F
S11300B0D9F765D074C0A4CF1F920F920FB60F92D8
S11300C011242F938F939F93809100018E5C8093D2
S11300D00001809100018A3F18F08AEF80930001AB
S11300E02FEF89EF90E0215080409040E1F700C06D
S11300F00000809BFECF2FEF89EF90E021508040DD
S11301009040E1F700C0000081E088BF9F918F918B
S11301102F910F900FBE0F901F9018951F920F9262
S11301200FB60F9211242F938F939F938091000108
S113013082538093000180910001811102C01092CA
S113014000012FEF89EF90E0215080409040E1F7CB
S113015000C00000819BFECF2FEF89EF90E021507B
S113016080409040E1F700C0000082E088BF9F918A
S11301708F912F910F900FBE0F901F901895BC9ADE
S113018088E783BF8AE080936A0083E089BF78941C
S113019083B7826083BF8091000181BFFCCFF89454
S10501A0FFCF8B
S10501A2320025
S9030000FC
