:1000000045C0000061C00000A6C000005CC0000048
:100010005AC0000058C0000056C0000054C0000084
:1000200052C0000050C000004EC000004CC0000094
:100030004AC0000048C0000046C0000044C00000A4
:1000400042C0000040C000003EC000003CC00000B4
:100050003AC0000038C0000036C0000034C00000C4
:1000600032C0000030C000002EC000002CC00000D4
:100070002AC0000028C0000026C0000024C00000E4
:1000800022C0000020C000001EC0000011241FBEBE
:10009000CFEFD0E1DEBFCDBF11E0A0E0B1E0ECEFEB
:1000A000F1E000E00BBF02C007900D92A031B10754
:1000B000D9F721E0A0E1B1E001C01D92A431B2075F
:1000C000E1F790D099C09CCF1F920F920FB60F927C
:1000D00011240BB60F922F938F939F93EF93FF935F
:1000E000809112019091130101968031910529F0C0
:1000F000909313018093120104C010921301109287
:1001000012012FEF83EC99E0215080409040E1F7FD
:1001100000C000008099FECF2FEF83EC99E02150C2
:1001200080409040E1F700C000008EE083B9E0918C
:100130001201F0911301E050FF4F808188BBFF91C5
:10014000EF919F918F912F910F900BBE0F900FBE4B
:100150000F901F9018951F920F920FB60F921124B7
:100160000BB60F922F938F939F93EF93FF938091F2
:10017000100190911101019728F090931101809343
:10018000100106C08FE090E0909311018093100160
:100190008FEF93EC29E0815090402040E1F700C0C0
:1001A00000008199FECF8FEF93EC29E081509040C1
:1001B0002040E1F700C000008DE083B9E09110011C
:1001C000F0911101E050FF4F808188BBFF91EF91CA
:1001D0009F918F912F910F900BBE0F900FBE0F909C
:1001E0001F90189511BA8FEF87BB82B98FE080936B
:0C01F0006A0019BE7894FFCFF894FFCF8E
:1001FC003F065B4F666D7D077F6F777C395E79714B
:00000001FF
